{
    "contractName": "CRDL",
    "abi": [
        {
            "inputs": [
                {
                    "internalType": "uint256",
                    "name": "betSize_",
                    "type": "uint256"
                },
                {
                    "internalType": "uint256",
                    "name": "honorFee_",
                    "type": "uint256"
                },
                {
                    "internalType": "uint256",
                    "name": "ownerFee_",
                    "type": "uint256"
                },
                {
                    "internalType": "uint256",
                    "name": "maxParticipants_",
                    "type": "uint256"
                }
            ],
            "stateMutability": "nonpayable",
            "type": "constructor"
        },
        {
            "inputs": [],
            "name": "betSize",
            "outputs": [
                {
                    "internalType": "uint256",
                    "name": "",
                    "type": "uint256"
                }
            ],
            "stateMutability": "view",
            "type": "function"
        },
        {
            "inputs": [
                {
                    "internalType": "uint256",
                    "name": "commitHash_",
                    "type": "uint256"
                }
            ],
            "name": "changeCommitHash",
            "outputs": [],
            "stateMutability": "nonpayable",
            "type": "function"
        },
        {
            "inputs": [
                {
                    "internalType": "uint256",
                    "name": "commitHash_",
                    "type": "uint256"
                }
            ],
            "name": "commit",
            "outputs": [],
            "stateMutability": "payable",
            "type": "function"
        },
        {
            "inputs": [],
            "name": "honorFee",
            "outputs": [
                {
                    "internalType": "uint256",
                    "name": "",
                    "type": "uint256"
                }
            ],
            "stateMutability": "view",
            "type": "function"
        },
        {
            "inputs": [],
            "name": "maxParticipants",
            "outputs": [
                {
                    "internalType": "uint256",
                    "name": "",
                    "type": "uint256"
                }
            ],
            "stateMutability": "view",
            "type": "function"
        },
        {
            "inputs": [],
            "name": "ownerFee",
            "outputs": [
                {
                    "internalType": "uint256",
                    "name": "",
                    "type": "uint256"
                }
            ],
            "stateMutability": "view",
            "type": "function"
        }
    ],
    "bytecode": "608060405234801561001057600080fd5b5060405161036438038061036483398101604081905261002f9161005d565b60068054610100600160a81b0319163361010002179055600093909355600191909155600255600355610092565b60008060008060808587031215610072578384fd5b505082516020840151604085015160609095015191969095509092509050565b6102c3806100a16000396000f3fe6080604052600436106100555760003560e01c806324924bf71461005a5780635d1d3e2614610082578063cac18d9414610098578063d5b2a01a146100ae578063d8cf40b0146100c4578063f4f98ad5146100e6575b600080fd5b34801561006657600080fd5b5061007060035481565b60405190815260200160405180910390f35b34801561008e57600080fd5b5061007060005481565b3480156100a457600080fd5b5061007060015481565b3480156100ba57600080fd5b5061007060025481565b3480156100d057600080fd5b506100e46100df366004610215565b6100f9565b005b6100e46100f4366004610215565b61012d565b3360009081526008602052604090206002015460ff1661011857600080fd5b33600090815260086020526040902060010155565b3360009081526008602052604090206002015460ff161561014d57600080fd5b6003546004541061015d57600080fd5b600254600154600054610170919061022d565b61017a919061022d565b34101561018657600080fd5b600480549060006101968361025c565b90915550506004543360009081526008602052604081209182556001918201839055600254915481549192916101cc919061022d565b6101d6919061022d565b6101e09034610245565b604051909150339082156108fc029083906000818181858888f19350505050158015610210573d6000803e3d6000fd5b505050565b600060208284031215610226578081fd5b5035919050565b6000821982111561024057610240610277565b500190565b60008282101561025757610257610277565b500390565b600060001982141561027057610270610277565b5060010190565b634e487b7160e01b600052601160045260246000fdfea26469706673582212200726d2dae2a0dd0e73e352c0e75b51be75cfcabd46044acea2930ab5e002c8a264736f6c63430008040033",
    "sourcePath": "c:/Users/Trickster2038/Desktop/TpCryptoCw/src/contracts/CRNL.sol",
    "compiler": {
        "name": "solc",
        "version": "0.8.4+commit.c7e474f2"
    },
    "functionHashes": {
        "betSize()": "5d1d3e26",
        "changeCommitHash(uint256)": "d8cf40b0",
        "commit(uint256)": "f4f98ad5",
        "honorFee()": "cac18d94",
        "maxParticipants()": "24924bf7",
        "ownerFee()": "d5b2a01a"
    },
    "gasEstimates": {
        "creation": {
            "codeDepositCost": "141400",
            "executionCost": "infinite",
            "totalCost": "infinite"
        },
        "external": {
            "betSize()": "983",
            "changeCommitHash(uint256)": "21261",
            "commit(uint256)": "infinite",
            "honorFee()": "1005",
            "maxParticipants()": "961",
            "ownerFee()": "1027"
        }
    }
}